:100000000C94D0000C94F8000C94F8000C94F800B8
:100010000C94F8000C94F8000C94F8000C94F80080
:100020000C94F8000C94F8000C94F8000C94F80070
:100030000C94F8000C94F8000C94F8000C94F80060
:100040000C940E070C94F8000C94600A0C94E805CC
:100050000C94F8000C94F8000C94F8000C94F80040
:100060000C9475040C94F800260E1A0E1A0E260E27
:100070001A0E1A0E1A0E1A0E1A0E1A0E1A0E1A0E40
:100080001A0E1A0E1A0E1A0E1A0E1A0E1A0E1A0E30
:100090001A0E1A0E900DAF0D850D1A0EE80D1A0EE0
:1000A000C70DA90D520DC00D920DFC0DA00DD90D5F
:1000B000960D880D5D0D600D660D6D0DDC0D700DDE
:1000C000730D790D7C0DAC0DCE0DD50DFC0D7F0D96
:1000D0000C0E1A0EF40D130ECA0DFF0D4E0D080E68
:1000E0008B0D580D760D220E470D100E4B0DBB0DCE
:1000F000050E6A0D550DE30D020ED20D160EEF0D15
:10010000820DB80DEC0DB50D1E0E1A0E1A0E1A0E3C
:100110001A0EDF0D1A0E1A0E1A0E1A0E1A0E1A0EDB
:100120001A0E1A0E1A0E1A0E1A0E1A0E1A0E1A0E8F
:100130001A0E1A0E1A0E1A0E1A0E1A0E1A0E1A0E7F
:100140001A0E1A0E1A0E1A0E1A0E1A0E180E000099
:100150000000240027002A000000000025002800DD
:100160002B00040404040404040402020202020238
:10017000030303030303010204081020408001026B
:1001800004081020010204081020000000070002EB
:100190000100000304060000000000000000EC0E57
:1001A00011241FBECFEFD8E0DEBFCDBF11E0A0E02D
:1001B000B1E0E2E4F7E202C005900D92A235B1078A
:1001C000D9F723E0A2E5B1E001C01D92AE37B20736
:1001D000E1F710E0C0EDD0E004C02197FE010E94DD
:1001E0000713CF3CD107C9F70E949A0A0C947E0FDF
:1001F0000C94000085ED8093BC008091BC0084FDD0
:10020000FCCF10920C030895613298F420910C03F6
:10021000243089F46093A302282FA3E8B2E0FC0104
:100220008E2F821B861718F481918D93F9CF80E071
:10023000089581E0089582E008950895E091D20143
:100240008091D101E81730F4F0E0E35FFC4F80814A
:1002500090E008958FEF9FEF08959091D2018091E3
:10026000D101981750F4E92FF0E0E35FFC4F2081B3
:1002700030E09F5F9093D20102C02FEF3FEFC901A2
:1002800008958091D10190E02091D201821B9109C3
:100290000895CF92DF92EF92FF920F931F93CF9327
:1002A000DF937C01CB018A012091D601222389F0C2
:1002B000EB016B01C40ED51ECC15DD0569F069910B
:1002C000D701ED91FC910190F081E02DC7010995D6
:1002D000F3CF642F0E940401C801DF91CF911F91D9
:1002E0000F91FF90EF90DF90CF900895CF93DF9321
:1002F0001F92CDB7DEB769832091D6012223D1F0BA
:100300002091D301203240F021E030E0FC01338322
:10031000228380E090E015C08091D401E82FF0E0C6
:10032000ED59FD4F998190838F5F8093D401809325
:10033000D30105C061E0CE0101960E94040181E075
:1003400090E00F90DF91CF9108953091D301313239
:1003500008F046C080910C038111FCCF9091D5012B
:1003600022E020930C0360930B032FEF20930A03EA
:100370001092090330930803E3E6F2E0A6EEB2E040
:1003800020E0321721F041914D932F5FFACF109268
:10039000070320910703990F922B909307039091E5
:1003A0000603913041F41092060390910703909355
:1003B000BB0095EC01C095EE9093BC0090910C03AE
:1003C0009230E1F390910A039F3F79F080910A0304
:1003D000803241F080910A03803331F084E005C01F
:1003E00081E003C082E001C083E01092D40110924A
:1003F000D3011092D60108950F931F93CF93DF93EB
:10040000FC01A685B7858D01005C1F4FE80188813E
:10041000998101968F739927AD014E5B5F4FEA0179
:100420002881398128173907D1F3E80128813981DA
:10043000A20FB31F6C93A685B785A05CBF4F119622
:100440009C938E93A689B7892C9181E090E0078CCC
:1004500002C0880F991F0A94E2F7822B8C9381E0E7
:1004600081A30488F589E02D80818064808381E008
:1004700090E0DF91CF911F910F910895CF93DF937B
:100480006DE087E292E00E94FC01EC016AE087E205
:1004900092E00E94FC018C0F9D1FDF91CF91089587
:1004A000FC0181A1882329F0A489B5898C9186FF5C
:1004B000FBCF11A20895FC01A485B585FD01E05C88
:1004C000FF4F208131813296808191812817390731
:1004D00079F080819181A80FB91F8C9120813181A1
:1004E0002F5F3F4F2F7333273183208390E0089590
:1004F0008FEF9FEF0895DC011C96ED91FC911D9705
:10050000DF01A05CBF4F2D913C91119712968D9108
:100510009C9111972817390739F08D919C91E80F1C
:10052000F91F808190E008958FEF9FEF0895FC01FF
:1005300024853585F901E05CFF4F808191813296F9
:1005400020813181821B930B8F739927089587E255
:1005500092E00C949702009769F0FC010190002052
:10056000E9F73197AF01481B590BBC0187E292E0D4
:100570000C94240680E090E00895CF93DF930E94CE
:10058000AB02EC010E943E028C0F9D1FDF91CF91C8
:100590000895E1EBF1E0A6ECB2E08191882339F017
:1005A00081E0E13DF80719F080818D93F6CF86EC6C
:1005B00092E008954F925F926F927F92AF92BF92B6
:1005C000CF92DF92EF92FF920F931F93CF93DF931F
:1005D000CDB7DEB7A1970FB6F894DEBF0FBECDBF83
:1005E0006C01990FEE08FF08F7FE39C06DE287E253
:1005F00092E00E94FC018C01F094E094D094C094AD
:10060000C11CD11CE11CF11C19A29E012F5D3F4FA2
:1006100059013AE0432E512C612C712CC701B601CF
:10062000A30192010E94C6128C2D9AE0299F801985
:100630001124E1E0AE1AB1088A3014F4805D01C0E3
:10064000895CF501808369017A01232B242B252BFA
:1006500029F7C5010E94AB02080F191F2BC01C2DE2
:100660007D2DC70119A29E012F5D3F4F79012AE020
:10067000422E512C612C712C612FA30192010E94FA
:10068000C6128AE0289F1019112491E0E91AF10896
:100690001A3014F4105D01C0195CF7011083122F99
:1006A000732FCA01232B242B252B31F7C7010E945E
:1006B000AB028C010E943E02800F911FA1960FB6E3
:1006C000F894DEBF0FBECDBFDF91CF911F910F9188
:1006D000FF90EF90DF90CF90BF90AF907F906F90A2
:1006E0005F904F900895FF920F931F93CF93DF93E6
:1006F000EC018A01F22E89819A81DC01ED91FC9155
:100700000280F381E02D09950817190739F46F2D40
:1007100089819A810E94A50191E0811190E0892F41
:10072000DF91CF911F910F91FF900895CF93DF93A9
:1007300000D0CDB7DEB789836A8380915E02909145
:100740005F02FC012481358122303105A0F0208137
:1007500031E03093D6012093D5011092D40110924C
:10076000D30121E042E050E0BE016F5F7F4F0E9465
:100770007303811103C084E091E002C080E090E047
:100780000F900F90DF91CF9108957F928F929F925B
:10079000AF92BF92CF92DF92EF92FF920F931F938F
:1007A000CF93DF93DC0114962D913C911597232B69
:1007B00009F487C07A018C01FC01808191E090935B
:1007C000D6018093D5011092D4011092D30120E07C
:1007D00041E050E0CD010E947303D82E882309F434
:1007E00070C0CC24C39499249A9485EE882E95ECFD
:1007F000792E91E0D80114962D913C911597232BD9
:1008000009F490E0492F50E080910C038111FCCF56
:10081000F8018081C0920C0390930B0390920A031D
:10082000109209032FEF290F20930803C0920703AA
:1008300020910703880F822B809307038091060382
:10084000813049F410920603809107038093BB0026
:100850007092BC0002C08092BC0080910C03813079
:10086000E1F380910903891710F490910903A6EE32
:10087000B2E0EDE0F3E0C0E0C91721F08D91819383
:10088000CF5FFACF1092D201C093D101D0E0C4174C
:10089000D507B9F45701C5018E199F098C179D071B
:1008A00090F4D80111968D919C911297DC01ED91F5
:1008B000FC910680F781E02D0995F50181935F0198
:1008C000EACFD12C03C0CD2B09F493CF8D2DDF912E
:1008D000CF911F910F91FF90EF90DF90CF90BF903D
:1008E000AF909F908F907F9008951F920F920FB6B8
:1008F0000F9211242F933F934F935F936F937F93A6
:100900008F939F93AF93BF93EF93FF938091B90021
:10091000887F803609F49CC068F5883209F45BC092
:1009200090F4803109F454C038F4882309F4EFC0FE
:10093000883009F44DC0EFC0883109F44CC08032D2
:1009400009F45DC0E8C0803409F468C048F480331D
:1009500009F455C0883309F0DEC080930A03D1C082
:10096000803509F44FC0883509F45DC0883409F03A
:10097000D2C0CFC0883909F4C0C0A8F4883709F4C0
:1009800067C038F4883609F463C0803709F460C062
:10099000C2C0883809F4B1C0803909F45FC080381A
:1009A00009F0B9C05BC0803B09F481C038F4803ADB
:1009B00009F466C0883A09F47AC0ADC0803C09F4F5
:1009C000A0C0883C09F49DC0883B09F483C0A3C043
:1009D0008091070310C09091090380910803981734
:1009E00070F5E091090381E08E0F80930903F0E038
:1009F000EA51FD4F80818093BB0085EC7FC08093DE
:100A00000A0387C0E091090381E08E0F80930903F8
:100A10008091BB00F0E0EA51FD4F80839091090383
:100A20008091080367C0E091090381E08E0F8093F5
:100A300009038091BB00F0E0EA51FD4F8083809173
:100A40000B03811166C081E08093060384EA5AC0DB
:100A500083E080930C031092C502CFCF8091C50232
:100A6000803208F04AC0E091C50281E08E0F809389
:100A7000C5028091BB00F0E0EB55FD4F8083BDCFF8
:100A80008091C502803230F4E091C502F0E0EB5570
:100A9000FD4F10820E94FA006091C50270E085EA65
:100AA00092E0E0E0F0E009951092C5022AC084E0EF
:100AB00080930C031092A4021092A302E0E0F0E0F5
:100AC00009958091A302811105C081E08093A30262
:100AD00010928302E091A40281E08E0F8093A40221
:100AE000F0E0ED57FD4F80818093BB009091A40210
:100AF0008091A302981708F480CF85E88093BC000A
:100B00000AC085EC8093BC0010920C0304C01092C4
:100B10000A030E94FA00FF91EF91BF91AF919F915C
:100B20008F917F916F915F914F913F912F910F9096
:100B30000FBE0F901F90189510920C0381E08093C8
:100B40000B031092060361E082E10E94630661E0FC
:100B500083E10E946306E9EBF0E080818E7F808371
:100B600080818D7F808388E48093B80085E48093C2
:100B7000BC000895CF93DF93EC018B81811112C0EB
:100B80001092D2011092D1011092D4011092D3018F
:100B90000E949C0581E08B83CE010E94BA05982FAC
:100BA000882391F0888191E09093D6018093D501BC
:100BB0001092D4011092D30161E089819A810E9440
:100BC000A50191E0811190E0892FDF91CF910895E7
:100BD0001F920F920FB60F9211242F933F938F9372
:100BE0009F93EF93FF9320916D0330916E0380915B
:100BF0006F03909170032817390731F48091C10079
:100C00008F7D8093C10014C0E0916F03F091700359
:100C1000E35DFC4F208180916F03909170030196FA
:100C20008F7399279093700380936F032093C6006E
:100C3000FF91EF919F918F913F912F910F900FBE58
:100C40000F901F9018950895CF92DF92EF92FF9228
:100C50000F931F93CF93DF936C01EB017B01E40EA5
:100C6000F51E00E010E0CE15DF0561F06991D601B8
:100C7000ED91FC910190F081E02DC6010995080FDE
:100C8000191FF1CFC801DF91CF911F910F91FF90F4
:100C9000EF90DF90CF9008958E3008F08E508770DF
:100CA000806480937C0080917A00806480937A00D5
:100CB00080917A0086FDFCCF8091780020917900A8
:100CC00090E0922B089590E0FC01E657FE4F2491AE
:100CD000FC01EA58FE4F3491FC01EE59FE4FE491BD
:100CE000EE2309F43CC0222339F1233091F038F48B
:100CF0002130A9F0223001F584B58F7D12C0263055
:100D000091F02730A1F02430B9F4809180008F7DDC
:100D100003C0809180008F77809380000DC084B5E0
:100D20008F7784BD09C08091B0008F7703C0809118
:100D3000B0008F7D8093B000F0E0EE0FFF1FE85A07
:100D4000FE4FA591B4919FB7F894611104C08C91A6
:100D50003095382302C0EC913E2B3C939FBF089501
:100D6000CF93DF9390E0FC01EA58FE4F2491FC0101
:100D7000EE59FE4F8491882361F190E0880F991F0E
:100D8000FC01E25BFE4FC591D491FC01E85AFE4F95
:100D9000A591B491611109C09FB7F89488812095FD
:100DA00082238883EC912E230BC0623061F49FB7BD
:100DB000F8948881322F309583238883EC912E2BF1
:100DC0002C939FBF06C08FB7F894E8812E2B288301
:100DD0008FBFDF91CF9108952FB7F894609176037C
:100DE0007091770380917803909179032FBF0895D4
:100DF00080915E01811107C061E088E00E94630676
:100E000081E080935E010E94EC0660935A0170932A
:100E10005B0180935C0190935D0108951F920F9296
:100E20000FB60F9211242F933F938F939F93AF93FD
:100E3000BF938091760390917703A0917803B0914E
:100E400079033091750323E0230F2D3720F40196A9
:100E5000A11DB11D05C026E8230F0296A11DB11DDD
:100E6000209375038093760390937703A093780380
:100E7000B09379038091710390917203A0917303F1
:100E8000B09174030196A11DB11D809371039093DD
:100E90007203A0937303B0937403BF91AF919F91BA
:100EA0008F913F912F910F900FBE0F901F9018952B
:100EB0000E94F80661E084E00E94630681E080936E
:100EC0005F0108950F931F93CF93DF938C01EB0184
:100ED00080915F0101151105E1F0811102C00E94AE
:100EE000580782E0809374010E94EC06DC01CB017C
:100EF000800F911FA11DB11D809356019093570142
:100F0000A0935801B0935901D0935301C09352015B
:100F10001BC0882331F060E084E00E9463061092D9
:100F20005F0183E0809374010E94EC06DC01CB0139
:100F30008C0F9D1FA11DB11D8093560190935701E9
:100F4000A0935801B0935901DF91CF911F910F9158
:100F5000089580917501882319F08150809375015F
:100F600080917501882361F0E0E6F1E090E09F0157
:100F700020563140281739071CF421812193F7CFDF
:100F8000089590917501943140F4E92FF0E0E05A12
:100F9000FE4F80839F5F909375010895CF93DF93F9
:100FA000EC011C161D062CF482E00E94C10721975B
:100FB000F8CFDF91CF910895CF93DF93EC011C160A
:100FC0001D062CF481E00E94C1072197F8CFDF9124
:100FD000CF9108952F923F924F925F926F927F929E
:100FE0008F929F92AF92BF92CF92DF92EF92FF9239
:100FF0000F931F93CF93DF93CDB7DEB763970FB6F1
:10100000F894DEBF0FBECDBF8B876A017B0160E81D
:1010100076E38EEB96E2A70196010E94C6122901A3
:101020003A0160E876E38EEB96E20E94B612C616AD
:10103000D706E806F90629F02FEF421A520A620A8B
:10104000720A40FE05C03FEF431A530A630A730A4F
:1010500080914902882309F482C1A3019201C7014A
:10106000B6010E94B61220E438E74DE751E00E9435
:10107000E812922E21EF290D2C3408F070C16B017B
:101080007C01FF0CCC08DC2C76019B01AC016C2DA3
:101090007C2D8C2D9C2D03E10E947713F0E4AF2E64
:1010A000A8E7BA2EBDE7CB2EDD24D394E12CF12C9A
:1010B00000E010E00E941A1369017A01C114D10402
:1010C00040E1E406F10408F04AC1292C312CC11496
:1010D000D104E104F10499F4C10104979695982F85
:1010E0008827979587959C01990F440B550B2C8762
:1010F0003D874E875F87812C912C540153C0C701D7
:10110000B6010E94631120E030E040E056E30E9407
:10111000491220E030E040E053E40E9449120E946E
:10112000A0114B015C01B1017695762F662777956A
:101130006795072E000C880B990B0E946511A5017D
:1011400094010E94C81020E030E040E054E40E9486
:10115000C7100E9434116C877D878E879F87C701D7
:10116000B60147E0660F771F881F991F4A95D1F790
:101170000E946311688B798B8A8B9B8B20E030E017
:1011800040E059E4C501B4010E9449129B01AC0141
:10119000688979898A899B890E94C7100E943411C5
:1011A0004B015C013B85313011F412E201C01AE1C0
:1011B00060E0812F0E949603892B09F0D0C060E087
:1011C00081E0810F0E949603892B09F0C8C08C85AD
:1011D0009D85AE85BF8588279927A370BB27BD0154
:1011E0008827992782E0810F0E949603892B09F0B6
:1011F000B6C04D85642F83E0810F0E949603892B32
:1012000009F0ADC06C8584E0810F0E949603892BA4
:1012100009F0A5C0D501C40188279927AF70BB2765
:101220006A2F606885E0810F0E949603892B09F080
:1012300096C0692D86E0810F0E949603892B09F0E4
:101240008EC0682D87E0810F0E949603892B09F0DC
:1012500086C060EA81EB0E949603892B09F07FC06B
:101260005B85C701B601513009F441C00E9463118A
:1012700020E030E040E056E30E9449126B017C011F
:10128000B101330C880B990B0E9465119B01AC01D5
:10129000C701B6010E94C8106B017C0160914A022F
:1012A00070914B0280914C0290914D020E94651109
:1012B0009B01AC01C701B6010E94491221E02093B5
:1012C00054020E94A0110E94341160935502709341
:1012D000560280935702909358028B85833008F012
:1012E00060C0EB85E23009F442C01CE241C00E94BC
:1012F000631120E030E040E056E30E9449126B01A8
:101300007C01B101330C880B990B0E9465119B0184
:10131000AC01C701B6010E94C8106B017C0160914D
:101320004A0270914B0280914C0290914D020E94B2
:1013300065119B01AC01C701B6010E94491221E071
:10134000209359020E94A0110E94341160935A0206
:1013500070935B0280935C0290935D0206C0FB85F4
:10136000F330F8F4F13009F0BCCF14E301C01CE312
:101370001A87AE014F5F5F4FBE01665F7F4F80915E
:101380005E0290915F020E94C50369816F7069835C
:101390002B85E22FF0E0E75BFD4F178A812F0E943B
:1013A000960380914902882309F471C03B8533304C
:1013B00008F06DC0D301C2010497A109B1098D3FA6
:1013C0009740A105B10508F062C0313019F0809155
:1013D000540202C080915902882309F458C054E095
:1013E000451A510861085EEF750A87E0440C551CE8
:1013F000661C771C8A95D1F7EB858E2F90E0FC0157
:10140000E65DFE4F208129831A8221E02B83B30100
:10141000A2014427552763707727FC01E75BFD4F46
:101420008789862B8C835D824E821F82188619865F
:1014300080915E0290915F02FC01448155814930A8
:10144000510528F130812093D6013093D5011092B7
:10145000D4011092D30149E050E0BE016F5F7F4F8D
:101460000E947303882399F0FB85F13011F46FE239
:1014700001C06FE060642B85213021F0223021F023
:1014800080E103C081E101C082E10E94960363967E
:101490000FB6F894DEBF0FBECDBFDF91CF911F9185
:1014A0000F91FF90EF90DF90CF90BF90AF909F9003
:1014B0008F907F906F905F904F903F902F90089506
:1014C0001F920F920FB60F9211242F934F935F9399
:1014D0008F939F93EF93FF938091C00082FD1CC078
:1014E0002091C60080912302909124024091250210
:1014F0005091260201968F7399274817590771F06A
:10150000E0912302F0912402ED51FE4F208390934D
:1015100024028093230202C08091C600FF91EF91C4
:101520009F918F915F914F912F910F900FBE0F90D0
:101530001F901895CF93DF9300D0CDB7DEB7789486
:1015400084B5826084BD84B5816084BD85B58260C8
:1015500085BD85B5816085BD80916E008160809379
:101560006E001092810080918100826080938100E2
:1015700080918100816080938100809180008160F2
:10158000809380008091B10084608093B10080914D
:10159000B00081608093B00080917A008460809375
:1015A0007A0080917A00826080937A0080917A003C
:1015B000816080937A0080917A00806880937A00BD
:1015C0001092C10061E087E00E94B00661E084E013
:1015D0000E94B00660E084E00E94630661E088E05B
:1015E0000E94B00660E088E00E94630662E082E04C
:1015F0000E94B00660E08EE00E94B00660E08FE0DE
:101600000E94B006E0913B02F0913C0281E090E044
:101610009C010090470202C0220F331F0A94E2F798
:101620002083E0913702F09138021082E091390274
:10163000F0913A0220E1208310924802E0913D02AD
:10164000F0913E0240819C010090430202C0220FB3
:10165000331F0A94E2F7242B2083E0913D02F0919E
:101660003E0240819C010090440202C0220F331FC1
:101670000A94E2F7242B2083E0913D02F0913E0290
:1016800040819C010090450202C0220F331F0A9442
:10169000E2F7242B2083E0913D02F0913E0220816D
:1016A0000090460202C0880F991F0A94E2F78095C5
:1016B000822380838DE291E00E94BD0280915E02D0
:1016C00090915F02009711F00E942E1086E090E04A
:1016D0000E94960F8C0180E6F801808387ED91E0EF
:1016E00092838183138280E290E0958384831093B8
:1016F0005F0200935E021092D2011092D10110920B
:10170000D4011092D3010E949C0581E0F8018383EB
:10171000C8010E94BA05882309F459C36FEF83E01A
:101720000E949603892B09F052C360E880E10E9471
:101730009603892B09F04BC360E881E10E94960370
:10174000892B09F044C360E882E10E949603892B4B
:1017500009F03DC360E883E10E949603892B09F0FC
:1017600036C360E884E10E949603892B09F02FC3F9
:1017700060E885E10E949603892B09F028C360E8A0
:1017800086E10E949603892B09F021C360E887E176
:101790000E949603892B09F01AC360914E0287EBD1
:1017A0000E949603892B09F012C385E98983AE0153
:1017B0004E5F5F4FBE016F5F7F4F80915E029091E1
:1017C0005F020E94C5038111FBC210925402109265
:1017D000550210925602109257021092580210921F
:1017E000590210925A0210925B0210925C021092FF
:1017F0005D0281E08093490260E083E00E949603ED
:1018000088EE882E83E0982EA12CB12C01E010E008
:1018100093E0D92E22E0C22E0E94EC06693E73406E
:101820008105910540F08092000190920101A09203
:101830000201B09203010E94EC06409078015090A2
:10184000790160907A0170907B01DC01CB018419F1
:101850009509A609B70940900001509001016090D8
:1018600002017090030184159505A605B70508F1DE
:101870008091760190917701892B49F461E087E0AE
:101880000E946306109377010093760108C060E020
:1018900087E00E94630610927701109276010E9401
:1018A000EC06609378017093790180937A019093AC
:1018B0007B0180917401823059F1833009F45BC05F
:1018C000813009F069C00E94EC06409056015090AA
:1018D000570160905801709059016415750586058F
:1018E000970508F459C080915F01811102C00E94E0
:1018F0005807C09274010E94EC0620915401309167
:101900005501DC01CB01820F931FA11DB11D2AC01F
:101910000E94EC064090560150905701609058018B
:10192000709059016415750586059705A8F1809199
:101930005F01882331F060E084E00E94630610922A
:101940005F01D0927401E0905201F0905301E114D4
:10195000F10401F10E94EC06DC01CB018E0D9F1D0C
:10196000A11DB11D8093560190935701A09358017A
:10197000B093590111C00E94EC064090560150905E
:1019800057016090580170905901641575058605DE
:10199000970510F01092740180915F01811104C0CD
:1019A00080917401813059F40E94EC0660935A01D1
:1019B00070935B0180935C0190935D0119C08091ED
:1019C0005E018823A9F00E94EC0640905A015090D5
:1019D0005B0160905C0170905D0164157505860582
:1019E000970531F060E088E00E94630610925E0186
:1019F0008091740181112EC080917501882351F16D
:101A0000809160018230B1F048F4882381F0813008
:101A100009F56CE370E08CE390E018C0893079F050
:101A20008A3081F08830B1F468E770E00DC06EE173
:101A300070E00AC06CE370E084EB90E007C064EBF8
:101A400070E002C064EA71E080E090E00E9462070A
:101A50000E94A907F090AE01FF2009F40CC180910B
:101A60007501811108C1E0917C01EA3009F4F1C0EF
:101A7000ED3009F4EEC08E2F90E0FC013A97E33789
:101A8000F10508F0D7C0EC5CFF4F0C94071381E020
:101A90000E94C1071FC081E00E94C10782E00E942E
:101AA000C107D0C082E00E94C10781E00E94C10747
:101AB00082E090E00E94CE07ABC085E090E05DC080
:101AC00081E00E94C10784E090E057C082E090E08E
:101AD0000E94DC0783E090E050C083E090E036C0D5
:101AE00085E090E0B1C082E00E94C10784E090E010
:101AF000ABC082E090E054C083E090E0A1C082E0FF
:101B00000E94C10783E090E06CC081E00E94C107A1
:101B100082E00E94C10782E090E00E94DC0775C06D
:101B200089E077C082E00E94C10776C081E00E9410
:101B3000C10782E00E94C10781E00E94C10770C016
:101B400082E090E00E94CE0782E090E00E94DC07F5
:101B500012C081E00E94C10784E090E0ABCF82E038
:101B60000E94C10781E00E94C10782E00E94C10774
:101B700081E00E94C10782E090E00E94CE0766C02B
:101B800082E00E94C10781E00E94C1071CC081E081
:101B90000E94C10782E00E94C10704C083E090E078
:101BA0000E94CE0783E090E04FC082E00E94C10710
:101BB00023C082E00E94C10784E090E012C082E06E
:101BC00090E00E94DC0782E090E00E94CE072BC0EC
:101BD00083E090E00E94DC0782E00E94C10782E07F
:101BE00090E00E94DC0722C081E00E94C10782E0F1
:101BF00090E00E94CE0706C081E00E94C10782E00B
:101C00000E94C10781E00E94C10782E00E94C107D3
:101C100081E00E94C1071AC083E090E00E94DC07C7
:101C200082E00E94C10781E00E94C10782E0F1CFFB
:101C300080E00DC082E090E00E94DC0782E090E04E
:101C40000E94CE0782E090E00E94DC0788E00E94BC
:101C5000C1078FEF8F0D8093AE01882361F0ECE711
:101C6000F1E090E09F012C573140281739071CF410
:101C700021812193F7CF87E292E00E949702892B7E
:101C800009F49BC087E292E00E945B022091AF01C1
:101C90003091B0012F31310554F4F901EF54FE4F6A
:101CA00080832F5F3F4F3093B0012093AF01E091CD
:101CB000AF01F091B001EF31F10519F08D3009F06D
:101CC0007CC0E055FE4F80818D3009F4108260E3C6
:101CD00071E081EB91E00E94B710892B39F480E329
:101CE00091E00E94AB0282E391E05BC08091B10180
:101CF000813671F48FE391E00E94BD020E94C90217
:101D00000E94570FAB01BC0180E00E94EA074BC064
:101D1000823661F40E94C9020E94570FAB01BC01D8
:101D200081E00E94EA0781E491E03BC0833661F4E0
:101D30000E94C9020E94570FAB01BC0182E00E94C1
:101D4000EA0783E491E02DC065E471E081EB91E066
:101D50000E94B710892B31F485E491E00E94AB0218
:101D60008EE00DC067E471E081EB91E00E94B71056
:101D7000892B51F487E491E00E94AB028FE00E942E
:101D80004C060E94DA020FC06DE271E081EB91E037
:101D90000E94B710892B19F48DE291E002C089E40A
:101DA00091E00E94BD021092B0011092AF016CE46C
:101DB00071E081EB91E00E94C0100E94A7022CCD3F
:101DC0006A816F776A8385E90E949603FECC8DE471
:101DD00091E00E94BD0214CDE7EDF1E01382128282
:101DE00088EE93E0A0E0B0E084839583A683B78378
:101DF0002EE031E031832083E7E2F2E013821282A9
:101E000084839583A683B7838EE191E09183808359
:101E100083EE91E0958784878DE293E097878687AC
:101E200085EC90E0918B808B84EC90E0938B828B9F
:101E300080EC90E0958B848B21EC30E0378B268B07
:101E400022EC30E0318F208F26EC30E0338F228F70
:101E500024E0248F23E0258F27E0268F25E0278F9D
:101E600021E020A3E9E4F2E0168A158A108240E41A
:101E700058E76DE771E041835283638374839683EF
:101E800085838EE190E0A0E0B0E087839087A18712
:101E9000B28713861486158616861786108A118ACD
:101EA000128A138A148A178A108E118E08951F932E
:101EB000FC0199278827BC01E89411911032E9F3BD
:101EC000193010F01E30C8F31B3251F01D3249F4A6
:101ED000689406C00E94810F610F711D811D911DC4
:101EE000119110531A30B0F33EF49095809570958F
:101EF00061957F4F8F4F9F4F1F910895F8940C94D9
:101F00009F13592F482F372F262F660F771F881FB3
:101F1000991F660F771F881F991F620F731F841FF9
:101F2000951F660F771F881F991F08950F931F93A2
:101F3000CF93DF938230910510F482E090E0E0913E
:101F40007C03F0917D0320E030E0A0E0B0E030972A
:101F500019F1408151810281138148175907C8F056
:101F60008417950769F4109731F012960C93129725
:101F700013961C9327C000937C0310937D0322C00B
:101F80002115310519F04217530718F49A01BD01C4
:101F9000EF01DF01F801DBCF21153105F9F0281B36
:101FA000390B2430310580F48A819B8161157105DC
:101FB00021F0FB019383828304C090937D0380937F
:101FC0007C03FE01329644C0FE01E20FF31F8193B1
:101FD000919322503109398328833AC020917A03A2
:101FE00030917B03232B41F42091060130910701AE
:101FF00030937B0320937A032091040130910501F3
:102000002115310541F42DB73EB74091080150919B
:102010000901241B350BE0917A03F0917B03E21751
:10202000F307A0F42E1B3F0B2817390778F0AC01FB
:102030004E5F5F4F2417350748F04E0F5F1F5093D8
:102040007B0340937A038193919302C0E0E0F0E038
:10205000CF01DF91CF911F910F910895CF93DF931F
:10206000009709F481C0FC01329713821282A0917B
:102070007C03B0917D03109781F420813181820F20
:10208000931F20917A0330917B032817390751F56C
:10209000F0937B03E0937A0367C0ED0120E030E02A
:1020A000CE17DF0740F44A815B819E01411551053F
:1020B000F1F0EA01F5CFD383C28340815181840FCF
:1020C000951FC817D90759F488819981840F951FE6
:1020D0000296918380838A819B81938382832115D9
:1020E000310529F4F0937D03E0937C033DC0E901C1
:1020F000FB83EA8349915991C40FD51FEC17FD0763
:1021000061F480819181840F951F0296E901998382
:102110008883828193819B838A83E0E0F0E012963A
:102120008D919C911397009719F0FD01DC01F7CF79
:102130008D919C9111979D012E5F3F4F820F931FB0
:1021400020917A0330917B032817390769F430977F
:1021500029F410927D0310927C0302C01382128234
:10216000B0937B03A0937A03DF91CF910895FB0195
:10217000DC018D91019080190110D9F3990B08951C
:10218000FB01DC0101900D920020E1F70895505809
:10219000BB27AA270E94DF100C94F7110E94E911B7
:1021A00038F00E94F01120F039F49F3F19F426F422
:1021B0000C94E6110EF4E095E7FB0C94B711E92FAF
:1021C0000E94081258F3BA1762077307840795072D
:1021D00020F079F4A6F50C9442120EF4E0950B2E43
:1021E000BA2FA02D0B01B90190010C01CA01A00169
:1021F0001124FF27591B99F0593F50F4503E68F1C4
:102200001A16F040A22F232F342F4427585FF3CF04
:10221000469537952795A795F0405395C9F77EF4D5
:102220001F16BA0B620B730B840BBAF09150A1F01E
:10223000FF0FBB1F661F771F881FC2F70EC0BA0FA4
:10224000621F731F841F48F4879577956795B7952C
:10225000F7959E3F08F0B0CF9395880F08F0992727
:10226000EE0F9795879508950E94101288F09F575A
:1022700098F0B92F9927B751B0F0E1F0660F771FAA
:10228000881F991F1AF0BA95C9F714C0B13091F0A0
:102290000E944212B1E008950C944212672F782FE9
:1022A0008827B85F39F0B93FCCF386957795679565
:1022B000B395D9F73EF490958095709561957F4FD1
:1022C0008F4F9F4F0895E89409C097FB3EF4909577
:1022D0008095709561957F4F8F4F9F4F9923A9F0FF
:1022E000F92F96E9BB279395F6958795779567958E
:1022F000B795F111F8CFFAF4BB0F11F460FF1BC0D2
:102300006F5F7F4F8F4F9F4F16C0882311F096E964
:1023100011C0772321F09EE8872F762F05C0662312
:1023200071F096E8862F70E060E02AF09A95660FCB
:10233000771F881FDAF7880F9695879597F9089584
:102340000E942A1290F09F3748F4911116F00C94D5
:10235000431260E070E080E89FEB089526F41B16BE
:10236000611D711D811D0C94BD110C94D81197F93C
:102370009F6780E870E060E00895882371F4772318
:1023800021F09850872B762F07C0662311F49927E8
:102390000DC09051862B70E060E02AF09A95660F90
:1023A000771F881FDAF7880F9695879597F9089514
:1023B0009F3F31F0915020F4879577956795B795B9
:1023C000880F911D9695879597F908959FEF80EC5A
:1023D000089500240A94161617061806090608958B
:1023E00000240A9412161306140605060895092EF1
:1023F0000394000C11F4882352F0BB0F40F4BF2B60
:1024000011F460FF04C06F5F7F4F8F4F9F4F08959F
:1024100057FD9058440F551F59F05F3F71F0479595
:10242000880F97FB991F61F09F3F79F0879508957A
:10243000121613061406551FF2CF4695F1DF08C099
:10244000161617061806991FF1CF869571056105B6
:10245000089408950E941012A0F0BEE7B91788F4FE
:10246000BB279F3860F41616B11D672F782F882779
:10247000985FF7CF869577956795B11D93959639B7
:10248000C8F30895E894BB2766277727CB0197F90F
:1024900008950E945C120C94F7110E94E91138F023
:1024A0000E94F01120F0952311F00C94B7110C94B8
:1024B000E61111240C9443120E94081270F3959FA8
:1024C000C1F3950F50E0551F629FF001729FBB272B
:1024D000F00DB11D639FAA27F00DB11DAA1F649FC7
:1024E0006627B00DA11D661F829F2227B00DA11D7A
:1024F000621F739FB00DA11D621F839FA00D611D00
:10250000221F749F3327A00D611D231F849F600D20
:10251000211D822F762F6A2F11249F5750409AF049
:10252000F1F088234AF0EE0FFF1FBB1F661F771FD5
:10253000881F91505040A9F79E3F510580F00C94A0
:10254000B7110C9443125F3FE4F3983ED4F38695A1
:1025500077956795B795F795E7959F5FC1F7FE2B40
:10256000880F911D9695879597F90895DB018F93B4
:102570009F930E940D13BF91AF91A29F800D911D5B
:10258000A39F900DB29F900D11240895A1E21A2EE1
:10259000AA1BBB1BFD010DC0AA1FBB1FEE1FFF1F07
:1025A000A217B307E407F50720F0A21BB30BE40B57
:1025B000F50B661F771F881F991F1A9469F760959E
:1025C0007095809590959B01AC01BD01CF01089558
:1025D000052E97FB1EF400940E94FF1257FD07D0B2
:1025E0000E94C61207FC03D04EF40C94FF125095C3
:1025F0004095309521953F4F4F4F5F4F08959095EF
:102600008095709561957F4F8F4F9F4F0895EE0F86
:10261000FF1F0590F491E02D09940E949013A59F4F
:10262000900DB49F900DA49F800D911D11240895CD
:10263000689401C0E8948F929F92CF93DF930E9499
:102640002613DF91CF919F908F900895882499242D
:10265000F401E401B0E49F93AA279A158B049C042B
:10266000ED05FE05CF05D007A10798F4AD2FDC2FAF
:10267000CF2FFE2FE92D982C892E982F872F762F7C
:10268000652F542F432F322F2227B85031F7BF9197
:1026900027C01B2EBF91BB27220F331F441F551F7E
:1026A000661F771F881F991F881C991CEE1FFF1F2C
:1026B000CC1FDD1FAA1FBB1F8A149B04EC05FD0560
:1026C000CE05DF05A007B10748F08A189B08EC0982
:1026D000FD09CE09DF09A00BB10B21601A94E1F6C8
:1026E0002EF49401AF01BE01CD01000C08950F93AB
:1026F000083090F0982F872F762F652F542F432F77
:10270000322F22270850F4CF220F331F441F551FAA
:10271000661F771F881F991F0A95B2F70F910895BA
:10272000A29FB001B39FC001A39F700D811D112412
:10273000911DB29F700D811D1124911D0895F89473
:02274000FFCFC9
:102742006400000000007E0320000000000076010B
:10275200490141012D011E011D0100000000FC0183
:10276200240697025B027B0250022A323A68690011
:102772007600323032333031313631333437006122
:10278200006200630066007200653030006530311F
:02279200000045
:00000001FF
