:100000000C94D0000C94F8000C94F8000C94F800B8
:100010000C94F8000C94F8000C94F8000C94F80080
:100020000C94F8000C94F8000C94F8000C94F80070
:100030000C94F8000C94F8000C94F8000C94F80060
:100040000C940E070C94F8000C94600A0C94E805CC
:100050000C94F8000C94F8000C94F8000C94F80040
:100060000C9475040C94F800280E1C0E1C0E280E1F
:100070001C0E1C0E1C0E1C0E1C0E1C0E1C0E1C0E30
:100080001C0E1C0E1C0E1C0E1C0E1C0E1C0E1C0E20
:100090001C0E1C0E920DB10D870D1C0EEA0D1C0ED0
:1000A000C90DAB0D540DC20D940DFE0DA20DDB0D4F
:1000B000980D8A0D5F0D620D680D6F0DDE0D720DCE
:1000C000750D7B0D7E0DAE0DD00DD70DFE0D810D86
:1000D0000E0E1C0EF60D150ECC0D010E500D0A0E57
:1000E0008D0D5A0D780D240E490D120E4D0DBD0DBE
:1000F000070E6C0D570DE50D040ED40D180EF10D05
:10010000840DBA0DEE0DB70D200E1C0E1C0E1C0E2C
:100110001C0EE10D1C0E1C0E1C0E1C0E1C0E1C0ECB
:100120001C0E1C0E1C0E1C0E1C0E1C0E1C0E1C0E7F
:100130001C0E1C0E1C0E1C0E1C0E1C0E1C0E1C0E6F
:100140001C0E1C0E1C0E1C0E1C0E1C0E1A0E00008B
:100150000000240027002A000000000025002800DD
:100160002B00040404040404040402020202020238
:10017000030303030303010204081020408001026B
:1001800004081020010204081020000000070002EB
:100190000100000304060000000000000000F70E4C
:1001A00011241FBECFEFD8E0DEBFCDBF11E0A0E02D
:1001B000B1E0E8E5F7E202C005900D92A836B1077C
:1001C000D9F723E0A8E6B1E001C01D92A639B20735
:1001D000E1F710E0C0EDD0E004C02197FE010E94DD
:1001E0001213CF3CD107C9F70E949A0A0C94890FC9
:1001F0000C94000085ED8093BC008091BC0084FDD0
:10020000FCCF109224030895613298F420912403C6
:10021000243089F46093BB02282FABE9B2E0FC01E3
:100220008E2F821B861718F481918D93F9CF80E071
:10023000089581E0089582E008950895E091EA012B
:100240008091E901E81730F4F0E0EB5DFC4F80812C
:1002500090E008958FEF9FEF08959091EA018091CB
:10026000E901981750F4E92FF0E0EB5DFC4F208195
:1002700030E09F5F9093EA0102C02FEF3FEFC9018A
:1002800008958091E90190E02091EA01821B910993
:100290000895CF92DF92EF92FF920F931F93CF9327
:1002A000DF937C01CB018A012091EE01222389F0AA
:1002B000EB016B01C40ED51ECC15DD0569F069910B
:1002C000D701ED91FC910190F081E02DC7010995D6
:1002D000F3CF642F0E940401C801DF91CF911F91D9
:1002E0000F91FF90EF90DF90CF900895CF93DF9321
:1002F0001F92CDB7DEB769832091EE012223D1F0A2
:100300002091EB01203240F021E030E0FC0133830A
:10031000228380E090E015C08091EC01E82FF0E0AE
:10032000E558FD4F998190838F5F8093EC01809316
:10033000EB0105C061E0CE0101960E94040181E05D
:1003400090E00F90DF91CF9108953091EB01313221
:1003500008F046C0809124038111FCCF9091ED01FB
:1003600022E020932403609323032FEF20932203A2
:100370001092210330932003EBE7F2E0AEEFB2E0FE
:1003800020E0321721F041914D932F5FFACF109268
:100390001F0320911F03990F922B90931F0390919D
:1003A0001E03913041F410921E0390911F0390930D
:1003B000BB0095EC01C095EE9093BC009091240396
:1003C0009230E1F3909122039F3F79F080912203D4
:1003D000803241F080912203803331F084E005C007
:1003E00081E003C082E001C083E01092EC01109232
:1003F000EB011092EE0108950F931F93CF93DF93BB
:10040000FC01A685B7858D01005C1F4FE80188813E
:10041000998101968F739927AD014E5B5F4FEA0179
:100420002881398128173907D1F3E80128813981DA
:10043000A20FB31F6C93A685B785A05CBF4F119622
:100440009C938E93A689B7892C9181E090E0078CCC
:1004500002C0880F991F0A94E2F7822B8C9381E0E7
:1004600081A30488F589E02D80818064808381E008
:1004700090E0DF91CF911F910F910895CF93DF937B
:100480006DE08FE392E00E94FC01EC016AE08FE3F3
:1004900092E00E94FC018C0F9D1FDF91CF91089587
:1004A000FC0181A1882329F0A489B5898C9186FF5C
:1004B000FBCF11A20895FC01A485B585FD01E05C88
:1004C000FF4F208131813296808191812817390731
:1004D00079F080819181A80FB91F8C9120813181A1
:1004E0002F5F3F4F2F7333273183208390E0089590
:1004F0008FEF9FEF0895DC011C96ED91FC911D9705
:10050000DF01A05CBF4F2D913C91119712968D9108
:100510009C9111972817390739F08D919C91E80F1C
:10052000F91F808190E008958FEF9FEF0895FC01FF
:1005300024853585F901E05CFF4F808191813296F9
:1005400020813181821B930B8F73992708958FE34C
:1005500092E00C949702E9ECF1E0AEEDB2E081910B
:10056000882339F081E0E93EF80719F080818D9306
:10057000F6CF8EED92E00895009769F0FC010190AE
:100580000020E9F73197AF01481B590BBC018FE3FD
:1005900092E00C94240680E090E00895CF93DF93DE
:1005A0000E94BC02EC010E943E028C0F9D1FDF9155
:1005B000CF9108954F925F926F927F92AF92BF92C8
:1005C000CF92DF92EF92FF920F931F93CF93DF931F
:1005D000CDB7DEB7A1970FB6F894DEBF0FBECDBF83
:1005E0006C01990FEE08FF08F7FE39C06DE28FE34A
:1005F00092E00E94FC018C01F094E094D094C094AD
:10060000C11CD11CE11CF11C19A29E012F5D3F4FA2
:1006100059013AE0432E512C612C712CC701B601CF
:10062000A30192010E94D1128C2D9AE0299F80197A
:100630001124E1E0AE1AB1088A3014F4805D01C0E3
:10064000895CF501808369017A01232B242B252BFA
:1006500029F7C5010E94BC02080F191F2BC01C2DD1
:100660007D2DC70119A29E012F5D3F4F79012AE020
:10067000422E512C612C712C612FA30192010E94FA
:10068000D1128AE0289F1019112491E0E91AF1088B
:100690001A3014F4105D01C0195CF7011083122F99
:1006A000732FCA01232B242B252B31F7C7010E945E
:1006B000BC028C010E943E02800F911FA1960FB6D2
:1006C000F894DEBF0FBECDBFDF91CF911F910F9188
:1006D000FF90EF90DF90CF90BF90AF907F906F90A2
:1006E0005F904F900895FF920F931F93CF93DF93E6
:1006F000EC018A01F22E89819A81DC01ED91FC9155
:100700000280F381E02D09950817190739F46F2D40
:1007100089819A810E94A50191E0811190E0892F41
:10072000DF91CF911F910F91FF900895CF93DF93A9
:1007300000D0CDB7DEB789836A838091760290912D
:100740007702FC012481358122303105A0F020811F
:1007500031E03093EE012093ED011092EC01109204
:10076000EB0121E042E050E0BE016F5F7F4F0E944D
:100770007303811103C084E091E002C080E090E047
:100780000F900F90DF91CF9108957F928F929F925B
:10079000AF92BF92CF92DF92EF92FF920F931F938F
:1007A000CF93DF93DC0114962D913C911597232B69
:1007B00009F487C07A018C01FC01808191E090935B
:1007C000EE018093ED011092EC011092EB0120E01C
:1007D00041E050E0CD010E947303D82E882309F434
:1007E00070C0CC24C39499249A9485EE882E95ECFD
:1007F000792E91E0D80114962D913C911597232BD9
:1008000009F490E0492F50E0809124038111FCCF3E
:10081000F8018081C09224039093230390922203D5
:10082000109221032FEF290F20932003C0921F0362
:1008300020911F03880F822B80931F0380911E033A
:10084000813049F410921E0380911F038093BB00F6
:100850007092BC0002C08092BC0080912403813061
:10086000E1F380912103891710F490912103AEEFF9
:10087000B2E0E5E2F3E0C0E0C91721F08D91819389
:10088000CF5FFACF1092EA01C093E901D0E0C4171C
:10089000D507B9F45701C5018E199F098C179D071B
:1008A00090F4D80111968D919C911297DC01ED91F5
:1008B000FC910680F781E02D0995F50181935F0198
:1008C000EACFD12C03C0CD2B09F493CF8D2DDF912E
:1008D000CF911F910F91FF90EF90DF90CF90BF903D
:1008E000AF909F908F907F9008951F920F920FB6B8
:1008F0000F9211242F933F934F935F936F937F93A6
:100900008F939F93AF93BF93EF93FF938091B90021
:10091000887F803609F49CC068F5883209F45BC092
:1009200090F4803109F454C038F4882309F4EFC0FE
:10093000883009F44DC0EFC0883109F44CC08032D2
:1009400009F45DC0E8C0803409F468C048F480331D
:1009500009F455C0883309F0DEC080932203D1C06A
:10096000803509F44FC0883509F45DC0883409F03A
:10097000D2C0CFC0883909F4C0C0A8F4883709F4C0
:1009800067C038F4883609F463C0803709F460C062
:10099000C2C0883809F4B1C0803909F45FC080381A
:1009A00009F0B9C05BC0803B09F481C038F4803ADB
:1009B00009F466C0883A09F47AC0ADC0803C09F4F5
:1009C000A0C0883C09F49DC0883B09F483C0A3C043
:1009D00080911F0310C090912103809120039817EC
:1009E00070F5E091210381E08E0F80932103F0E008
:1009F000E250FD4F80818093BB0085EC7FC08093E7
:100A0000220387C0E091210381E08E0F80932103B0
:100A10008091BB00F0E0E250FD4F80839091210374
:100A20008091200367C0E091210381E08E0F8093C5
:100A300021038091BB00F0E0E250FD4F8083809164
:100A40002303811166C081E080931E0384EA5AC0AB
:100A500083E0809324031092DD02CFCF8091DD02EA
:100A6000803208F04AC0E091DD0281E08E0F809371
:100A7000DD028091BB00F0E0E354FD4F8083BDCFE9
:100A80008091DD02803230F4E091DD02F0E0E35449
:100A9000FD4F10820E94FA006091DD0270E08DEB44
:100AA00092E0E0E0F0E009951092DD022AC084E0D7
:100AB000809324031092BC021092BB02E0E0F0E0AD
:100AC00009958091BB02811105C081E08093BB0232
:100AD00010929B02E091BC0281E08E0F8093BC02D9
:100AE000F0E0E556FD4F80818093BB009091BC0201
:100AF0008091BB02981708F480CF85E88093BC00F2
:100B00000AC085EC8093BC001092240304C01092AC
:100B100022030E94FA00FF91EF91BF91AF919F9144
:100B20008F917F916F915F914F913F912F910F9096
:100B30000FBE0F901F9018951092240381E08093B0
:100B4000230310921E0361E082E10E94630661E0CC
:100B500083E10E946306E9EBF0E080818E7F808371
:100B600080818D7F808388E48093B80085E48093C2
:100B7000BC000895CF93DF93EC018B81811112C0EB
:100B80001092EA011092E9011092EC011092EB012F
:100B90000E949C0581E08B83CE010E94BA05982FAC
:100BA000882391F0888191E09093EE018093ED018C
:100BB0001092EC011092EB0161E089819A810E9410
:100BC000A50191E0811190E0892FDF91CF910895E7
:100BD0001F920F920FB60F9211242F933F938F9372
:100BE0009F93EF93FF93209185033091860380912B
:100BF0008703909188032817390731F48091C10049
:100C00008F7D8093C10014C0E0918703F091880329
:100C1000EB5BFC4F208180918703909188030196C4
:100C20008F73992790938803809387032093C6003E
:100C3000FF91EF919F918F913F912F910F900FBE58
:100C40000F901F9018950895CF92DF92EF92FF9228
:100C50000F931F93CF93DF936C01EB017B01E40EA5
:100C6000F51E00E010E0CE15DF0561F06991D601B8
:100C7000ED91FC910190F081E02DC6010995080FDE
:100C8000191FF1CFC801DF91CF911F910F91FF90F4
:100C9000EF90DF90CF9008958E3008F08E508770DF
:100CA000806480937C0080917A00806480937A00D5
:100CB00080917A0086FDFCCF8091780020917900A8
:100CC00090E0922B089590E0FC01E657FE4F2491AE
:100CD000FC01EA58FE4F3491FC01EE59FE4FE491BD
:100CE000EE2309F43CC0222339F1233091F038F48B
:100CF0002130A9F0223001F584B58F7D12C0263055
:100D000091F02730A1F02430B9F4809180008F7DDC
:100D100003C0809180008F77809380000DC084B5E0
:100D20008F7784BD09C08091B0008F7703C0809118
:100D3000B0008F7D8093B000F0E0EE0FFF1FE85A07
:100D4000FE4FA591B4919FB7F894611104C08C91A6
:100D50003095382302C0EC913E2B3C939FBF089501
:100D6000CF93DF9390E0FC01EA58FE4F2491FC0101
:100D7000EE59FE4F8491882361F190E0880F991F0E
:100D8000FC01E25BFE4FC591D491FC01E85AFE4F95
:100D9000A591B491611109C09FB7F89488812095FD
:100DA00082238883EC912E230BC0623061F49FB7BD
:100DB000F8948881322F309583238883EC912E2BF1
:100DC0002C939FBF06C08FB7F894E8812E2B288301
:100DD0008FBFDF91CF9108952FB7F89460918E0364
:100DE00070918F0380919003909191032FBF08958C
:100DF00080917401811107C061E088E00E94630660
:100E000081E0809374010E94EC06609370017093FE
:100E10007101809372019093730108951F920F9254
:100E20000FB60F9211242F933F938F939F93AF93FD
:100E3000BF9380918E0390918F03A0919003B09106
:100E4000910330918D0323E0230F2D3720F4019679
:100E5000A11DB11D05C026E8230F0296A11DB11DDD
:100E600020938D0380938E0390938F03A093900320
:100E7000B09391038091890390918A03A0918B0391
:100E8000B0918C030196A11DB11D809389039093AD
:100E90008A03A0938B03B0938C03BF91AF919F9172
:100EA0008F913F912F910F900FBE0F901F9018952B
:100EB0000E94F80661E084E00E94630681E080936E
:100EC000750108950F931F93CF93DF938C01EB016E
:100ED0008091750101151105E1F0811102C00E9498
:100EE000580782E080938A010E94EC06DC01CB0166
:100EF000800F911FA11DB11D80936C0190936D0116
:100F0000A0936E01B0936F01D0936901C093680103
:100F10001BC0882331F060E084E00E9463061092D9
:100F2000750183E080938A010E94EC06DC01CB010D
:100F30008C0F9D1FA11DB11D80936C0190936D01BD
:100F4000A0936E01B0936F01DF91CF911F910F912C
:100F5000089580918B01882319F0815080938B0133
:100F600080918B01882361F0E6E7F1E090E09F013A
:100F700026573140281739071CF421812193F7CFD8
:100F8000089590918B01943140F4E92FF0E0EA58F4
:100F9000FE4F80839F5F90938B010895CF93DF93E3
:100FA000EC011C161D062CF482E00E94C10721975B
:100FB000F8CFDF91CF910895CF93DF93EC011C160A
:100FC0001D062CF481E00E94C1072197F8CFDF9124
:100FD000CF9108952F923F924F925F926F927F929E
:100FE0008F929F92AF92BF92CF92DF92EF92FF9239
:100FF0000F931F93CF93DF93CDB7DEB763970FB6F1
:10100000F894DEBF0FBECDBF8B876A017B0160E81D
:1010100076E38EEB96E2A70196010E94D112290198
:101020003A0160E876E38EEB96E20E94C112C616A2
:10103000D706E806F90629F02FEF421A520A620A8B
:10104000720A40FE05C03FEF431A530A630A730A4F
:1010500080916102882309F482C1A3019201C70132
:10106000B6010E94C11220E438E74DE751E00E942A
:10107000F312922E21EF290D2C3408F070C16B0170
:101080007C01FF0CCC08DC2C76019B01AC016C2DA3
:101090007C2D8C2D9C2D03E10E948213F0E4AF2E59
:1010A000A8E7BA2EBDE7CB2EDD24D394E12CF12C9A
:1010B00000E010E00E94251369017A01C114D104F7
:1010C00040E1E406F10408F04AC1292C312CC11496
:1010D000D104E104F10499F4C10104979695982F85
:1010E0008827979587959C01990F440B550B2C8762
:1010F0003D874E875F87812C912C540153C0C701D7
:10110000B6010E946E1120E030E040E056E30E94FC
:10111000541220E030E040E053E40E9454120E9458
:10112000AB114B015C01B1017695762F662777955F
:101130006795072E000C880B990B0E947011A50172
:1011400094010E94D31020E030E040E054E40E947B
:10115000D2100E943F116C877D878E879F87C701C1
:10116000B60147E0660F771F881F991F4A95D1F790
:101170000E946E11688B798B8A8B9B8B20E030E00C
:1011800040E059E4C501B4010E9454129B01AC0136
:10119000688979898A899B890E94D2100E943F11AF
:1011A0004B015C013B85313011F412E201C01AE1C0
:1011B00060E0812F0E949603892B09F0D0C060E087
:1011C00081E0810F0E949603892B09F0C8C08C85AD
:1011D0009D85AE85BF8588279927A370BB27BD0154
:1011E0008827992782E0810F0E949603892B09F0B6
:1011F000B6C04D85642F83E0810F0E949603892B32
:1012000009F0ADC06C8584E0810F0E949603892BA4
:1012100009F0A5C0D501C40188279927AF70BB2765
:101220006A2F606885E0810F0E949603892B09F080
:1012300096C0692D86E0810F0E949603892B09F0E4
:101240008EC0682D87E0810F0E949603892B09F0DC
:1012500086C060EA81EB0E949603892B09F07FC06B
:101260005B85C701B601513009F441C00E946E117F
:1012700020E030E040E056E30E9454126B017C0114
:10128000B101330C880B990B0E9470119B01AC01CA
:10129000C701B6010E94D3106B017C01609162020C
:1012A0007091630280916402909165020E947011B6
:1012B0009B01AC01C701B6010E94541221E02093AA
:1012C0006C020E94AB110E943F1160936D027093FB
:1012D0006E0280936F02909370028B85833008F0CA
:1012E00060C0EB85E23009F442C01CE241C00E94BC
:1012F0006E1120E030E040E056E30E9454126B0192
:101300007C01B101330C880B990B0E9470119B0179
:10131000AC01C701B6010E94D3106B017C01609142
:1013200062027091630280916402909165020E9452
:1013300070119B01AC01C701B6010E94541221E05B
:10134000209371020E94AB110E943F1160937202C0
:1013500070937302809374029093750206C0FB85AC
:10136000F330F8F4F13009F0BCCF14E301C01CE312
:101370001A87AE014F5F5F4FBE01665F7F4F80915E
:101380007602909177020E94C50369816F7069832C
:101390002B85E22FF0E0EF59FD4F178A812F0E9435
:1013A000960380916102882309F471C03B85333034
:1013B00008F06DC0D301C2010497A109B1098D3FA6
:1013C0009740A105B10508F062C0313019F0809155
:1013D0006C0202C080917102882309F458C054E065
:1013E000451A510861085EEF750A87E0440C551CE8
:1013F000661C771C8A95D1F7EB858E2F90E0FC0157
:10140000E65DFE4F208129831A8221E02B83B30100
:10141000A2014427552763707727FC01EF59FD4F40
:101420008789862B8C835D824E821F82188619865F
:101430008091760290917702FC0144815581493078
:10144000510528F130812093EE013093ED01109287
:10145000EC011092EB0149E050E0BE016F5F7F4F5D
:101460000E947303882399F0FB85F13011F46FE239
:1014700001C06FE060642B85213021F0223021F023
:1014800080E103C081E101C082E10E94960363967E
:101490000FB6F894DEBF0FBECDBFDF91CF911F9185
:1014A0000F91FF90EF90DF90CF90BF90AF909F9003
:1014B0008F907F906F905F904F903F902F90089506
:1014C0001F920F920FB60F9211242F934F935F9399
:1014D0008F939F93EF93FF938091C00082FD1CC078
:1014E0002091C60080913B0290913C0240913D02C8
:1014F00050913E0201968F7399274817590771F052
:10150000E0913B02F0913C02E550FE4F2083909326
:101510003C0280933B0202C08091C600FF91EF9194
:101520009F918F915F914F912F910F900FBE0F90D0
:101530001F901895CF93DF9300D0CDB7DEB7789486
:1015400084B5826084BD84B5816084BD85B58260C8
:1015500085BD85B5816085BD80916E008160809379
:101560006E001092810080918100826080938100E2
:1015700080918100816080938100809180008160F2
:10158000809380008091B10084608093B10080914D
:10159000B00081608093B00080917A008460809375
:1015A0007A0080917A00826080937A0080917A003C
:1015B000816080937A0080917A00806880937A00BD
:1015C0001092C10061E087E00E94B00661E084E013
:1015D0000E94B00660E084E00E94630661E088E05B
:1015E0000E94B00660E088E00E94630662E082E04C
:1015F0000E94B00660E08EE00E94B00660E08FE0DE
:101600000E94B006E0915302F091540281E090E014
:101610009C0100905F0202C0220F331F0A94E2F780
:101620002083E0914F02F09150021082E09151022C
:10163000F091520220E1208310926002E091550265
:10164000F091560240819C0100905B0202C0220F83
:10165000331F0A94E2F7242B2083E0915502F09186
:10166000560240819C0100905C0202C0220F331F91
:101670000A94E2F7242B2083E0915502F091560260
:1016800040819C0100905D0202C0220F331F0A942A
:10169000E2F7242B2083E0915502F091560220813D
:1016A00000905E0202C0880F991F0A94E2F78095AD
:1016B000822380838091760290917702009711F0C7
:1016C0000E94391086E090E00E94A10F8C0180E614
:1016D000F80180838FEE91E092838183138280E210
:1016E00090E09583848310937702009376021092A2
:1016F000EA011092E9011092EC011092EB010E94B4
:101700009C0581E0F8018383C8010E94BA05882303
:1017100009F468C36FEF83E00E949603892B09F0F8
:1017200061C360E880E10E949603892B09F05AC3E7
:1017300060E881E10E949603892B09F053C360E8B9
:1017400082E10E949603892B09F04CC360E883E193
:101750000E949603892B09F045C360E884E10E944A
:101760009603892B09F03EC360E885E10E94960349
:10177000892B09F037C360E886E10E949603892B24
:1017800009F030C360E887E10E949603892B09F0D5
:1017900029C36091660287EB0E949603892B09F0AA
:1017A00021C385E98983AE014E5F5F4FBE016F5F44
:1017B0007F4F80917602909177020E94C50381113C
:1017C0000AC310926C0210926D0210926E02109277
:1017D0006F021092700210927102109272021092B7
:1017E0007302109274021092750281E0809361027C
:1017F00060E083E00E94960381E090E09093C60150
:101800008093C50188EE882E83E0982EA12CB12C00
:1018100001E010E093E0D92E22E0C22E0E94EC06F7
:10182000693E73408105910540F0809200019092DD
:101830000101A0920201B09203010E94EC064090C7
:101840008E0150908F016090900170909101DC01A9
:10185000CB0184199509A609B70940900001509061
:101860000101609002017090030184159505A605A1
:10187000B70508F180918C0190918D01892B49F475
:1018800061E087E00E94630610938D0100938C0154
:1018900008C060E087E00E94630610928D011092FC
:1018A0008C010E94EC0660938E0170938F018093EF
:1018B00090019093910180918A01823059F1833097
:1018C00009F45BC0813009F069C00E94EC064090C9
:1018D0006C0150906D0160906E0170906F01641505
:1018E00075058605970508F459C080917501811129
:1018F00002C00E945807C0928A010E94EC06209103
:101900006A0130916B01DC01CB01820F931FA11D95
:10191000B11D2AC00E94EC0640906C0150906D01F0
:1019200060906E0170906F016415750586059705CE
:10193000A8F180917501882331F060E084E00E9475
:10194000630610927501D0928A01E0906801F090D0
:101950006901E114F10401F10E94EC06DC01CB0104
:101960008E0D9F1DA11DB11D80936C0190936D0183
:10197000A0936E01B0936F0111C00E94EC064090DD
:101980006C0150906D0160906E0170906F01641554
:1019900075058605970510F010928A0180917501F2
:1019A000811104C080918A01813059F40E94EC06B3
:1019B0006093700170937101809372019093730131
:1019C00019C0809174018823A9F00E94EC06409010
:1019D00070015090710160907201709073016415F4
:1019E00075058605970531F060E088E00E94630682
:1019F0001092740180918A0181112EC080918B0117
:101A0000882351F1809176018230B1F048F4882327
:101A100081F0813009F56CE370E08CE390E018C050
:101A2000893079F08A3081F08830B1F468E770E06D
:101A30000DC06EE170E00AC06CE370E084EB90E0F2
:101A400007C064EB70E002C064EA71E080E090E0FF
:101A50000E9462070E94A907F090C401FF2009F4C8
:101A60000CC180918B01811108C1E0919201EA3093
:101A700009F4F1C0ED3009F4EEC08E2F90E0FC01C6
:101A80003A97E337F10508F0D7C0EC5CFF4F0C94B0
:101A9000121381E00E94C1071FC081E00E94C107AC
:101AA00082E00E94C107D0C082E00E94C10781E0AD
:101AB0000E94C10782E090E00E94CE07ABC085E0A3
:101AC00090E05DC081E00E94C10784E090E057C0D3
:101AD00082E090E00E94DC0783E090E050C083E069
:101AE00090E036C085E090E0B1C082E00E94C1077E
:101AF00084E090E0ABC082E090E054C083E090E0EE
:101B0000A1C082E00E94C10783E090E06CC081E048
:101B10000E94C10782E00E94C10782E090E00E941B
:101B2000DC0775C089E077C082E00E94C10776C0FB
:101B300081E00E94C10782E00E94C10781E00E940B
:101B4000C10770C082E090E00E94CE0782E090E082
:101B50000E94DC0712C081E00E94C10784E090E08F
:101B6000ABCF82E00E94C10781E00E94C10782E002
:101B70000E94C10781E00E94C10782E090E00E94BC
:101B8000CE0766C082E00E94C10781E00E94C107C3
:101B90001CC081E00E94C10782E00E94C10704C00E
:101BA00083E090E00E94CE0783E090E04FC082E0A7
:101BB0000E94C10723C082E00E94C10784E090E038
:101BC00012C082E090E00E94DC0782E090E00E9478
:101BD000CE072BC083E090E00E94DC0782E00E94E9
:101BE000C10782E090E00E94DC0722C081E00E94F1
:101BF000C10782E090E00E94CE0706C081E00E940B
:101C0000C10782E00E94C10781E00E94C10782E013
:101C10000E94C10781E00E94C1071AC083E090E0E2
:101C20000E94DC0782E00E94C10781E00E94C10798
:101C300082E0F1CF80E00DC082E090E00E94DC07FE
:101C400082E090E00E94CE0782E090E00E94DC07F4
:101C500088E00E94C1078FEF8F0D8093C401882315
:101C600061F0E2E9F1E090E09F012259314028174C
:101C700039071CF421812193F7CF8FE392E00E9472
:101C80009702892B09F4A4C08FE392E00E945B02C3
:101C90002091C7013091C8012F31310554F4F90169
:101CA000E753FE4F80832F5F3F4F3093C80120934F
:101CB000C701E091C701F091C801EF31F10519F0BA
:101CC0008D3009F085C0E853FE4F80818D3009F4D6
:101CD00010828091C901803799F489EC91E00E94CB
:101CE000BC028DE291E00E94BC028CE391E00E9474
:101CF000BC028EE391E00E94BC028BE491E05CC0E8
:101D0000813671F48DE491E00E94CE020E94AB0214
:101D10000E94620FAB01BC0180E00E94EA074EC046
:101D2000823661F40E94AB020E94620FAB01BC01DB
:101D300081E00E94EA0781E591E03EC0833661F4CC
:101D40000E94AB020E94620FAB01BC0182E00E94C4
:101D5000EA0785E591E030C0843661F48091C501E1
:101D60009091C601019719F489E591E025C08DE5B0
:101D700091E022C064E671E089EC91E00E94C2101B
:101D8000892B31F484E691E00E94BC028EE00DC004
:101D900066E671E089EC91E00E94C210892B51F453
:101DA00086E691E00E94BC028FE00E944C060E94F1
:101DB000DA0204C089EC91E00E94CE021092C801C0
:101DC0001092C7016CE471E089EC91E00E94CB10A5
:101DD0000E94A70223CD6A816F776A8385E90E94FA
:101DE0009603EFCC1092C6011092C5010BCDEFEE19
:101DF000F1E01382128288EE93E0A0E0B0E08483E9
:101E00009583A683B7832EE031E031832083EFE30F
:101E1000F2E01382128284839583A683B7838EE1D6
:101E200091E0918380838BEF91E09587848785E4AF
:101E300093E09787868785EC90E0918B808B84EC8C
:101E400090E0938B828B80EC90E0958B848B21ECDF
:101E500030E0378B268B22EC30E0318F208F26EC60
:101E600030E0338F228F24E0248F23E0258F27E07A
:101E7000268F25E0278F21E020A3E1E6F2E0168AF5
:101E8000158A108240E458E76DE771E04183528380
:101E900063837483968385838EE190E0A0E0B0E055
:101EA00087839087A187B287138614861586168646
:101EB0001786108A118A128A138A148A178A108E3A
:101EC000118E08951F93FC0199278827BC01E8947F
:101ED00011911032E9F3193010F01E30C8F31B32A3
:101EE00051F01D3249F4689406C00E948C0F610FB6
:101EF000711D811D911D119110531A30B0F33EF4E4
:101F000090958095709561957F4F8F4F9F4F1F9152
:101F10000895F8940C94AA13592F482F372F262F81
:101F2000660F771F881F991F660F771F881F991FDD
:101F3000620F731F841F951F660F771F881F991FDD
:101F400008950F931F93CF93DF938230910510F480
:101F500082E090E0E0919403F091950320E030E07E
:101F6000A0E0B0E0309719F14081518102811381E6
:101F700048175907C8F08417950769F4109731F08E
:101F800012960C93129713961C9327C000939403F8
:101F90001093950322C02115310519F042175307FC
:101FA00018F49A01BD01EF01DF01F801DBCF211523
:101FB0003105F9F0281B390B2430310580F48A8172
:101FC0009B816115710521F0FB019383828304C01D
:101FD0009093950380939403FE01329644C0FE01D2
:101FE000E20FF31F819391932250310939832883A3
:101FF0003AC02091920330919303232B41F4209116
:1020000006013091070130939303209392032091AE
:102010000401309105012115310541F42DB73EB77A
:102020004091080150910901241B350BE091920366
:10203000F0919303E217F307A0F42E1B3F0B281730
:10204000390778F0AC014E5F5F4F2417350748F031
:102050004E0F5F1F5093930340939203819391938C
:1020600002C0E0E0F0E0CF01DF91CF911F910F912E
:102070000895CF93DF93009709F481C0FC01329754
:1020800013821282A0919403B0919503109781F46A
:1020900020813181820F931F20919203309193030D
:1020A0002817390751F5F0939303E093920367C023
:1020B000ED0120E030E0CE17DF0740F44A815B817C
:1020C0009E0141155105F1F0EA01F5CFD383C2839A
:1020D00040815181840F951FC817D90759F4888111
:1020E0009981840F951F0296918380838A819B81B9
:1020F000938382832115310529F4F0939503E093AE
:1021000094033DC0E901FB83EA8349915991C40FCF
:10211000D51FEC17FD0761F480819181840F951F15
:102120000296E90199838883828193819B838A83C4
:10213000E0E0F0E012968D919C911397009719F0D2
:10214000FD01DC01F7CF8D919C9111979D012E5FD0
:102150003F4F820F931F20919203309193032817D2
:10216000390769F4309729F410929503109294037B
:1021700002C013821282B0939303A0939203DF9163
:10218000CF910895FB01DC018D9101908019011020
:10219000D9F3990B0895FB01DC0101900D92002009
:1021A000E1F708955058BB27AA270E94EA100C9423
:1021B00002120E94F41138F00E94FB1120F039F451
:1021C0009F3F19F426F40C94F1110EF4E095E7FB0F
:1021D0000C94C211E92F0E94131258F3BA17620728
:1021E00073078407950720F079F4A6F50C944D1237
:1021F0000EF4E0950B2EBA2FA02D0B01B901900122
:102200000C01CA01A0011124FF27591B99F0593F65
:1022100050F4503E68F11A16F040A22F232F342FAD
:102220004427585FF3CF469537952795A795F040FB
:102230005395C9F77EF41F16BA0B620B730B840B10
:10224000BAF09150A1F0FF0FBB1F661F771F881FC8
:10225000C2F70EC0BA0F621F731F841F48F4879520
:1022600077956795B795F7959E3F08F0B0CF939512
:10227000880F08F09927EE0F9795879508950E948B
:102280001B1288F09F5798F0B92F9927B751B0F0DB
:10229000E1F0660F771F881F991F1AF0BA95C9F7EA
:1022A00014C0B13091F00E944D12B1E008950C9429
:1022B0004D12672F782F8827B85F39F0B93FCCF3DC
:1022C000869577956795B395D9F73EF49095809567
:1022D000709561957F4F8F4F9F4F0895E89409C087
:1022E00097FB3EF490958095709561957F4F8F4F49
:1022F0009F4F9923A9F0F92F96E9BB279395F6955F
:10230000879577956795B795F111F8CFFAF4BB0FDC
:1023100011F460FF1BC06F5F7F4F8F4F9F4F16C040
:10232000882311F096E911C0772321F09EE8872FCA
:10233000762F05C0662371F096E8862F70E060E086
:102340002AF09A95660F771F881FDAF7880F9695FF
:10235000879597F908950E94351290F09F3748F4B9
:10236000911116F00C944E1260E070E080E89FEB43
:10237000089526F41B16611D711D811D0C94C81152
:102380000C94E31197F99F6780E870E060E008958E
:10239000882371F4772321F09850872B762F07C07C
:1023A000662311F499270DC09051862B70E060E0F0
:1023B0002AF09A95660F771F881FDAF7880F96958F
:1023C000879597F908959F3F31F0915020F48795B4
:1023D00077956795B795880F911D9695879597F98D
:1023E00008959FEF80EC089500240A9416161706AE
:1023F00018060906089500240A94121613061406F6
:1024000005060895092E0394000C11F4882352F058
:10241000BB0F40F4BF2B11F460FF04C06F5F7F4F10
:102420008F4F9F4F089557FD9058440F551F59F0F7
:102430005F3F71F04795880F97FB991F61F09F3FB1
:1024400079F087950895121613061406551FF2CFDA
:102450004695F1DF08C0161617061806991FF1CF2A
:10246000869571056105089408950E941B12A0F0DD
:10247000BEE7B91788F4BB279F3860F41616B11D64
:10248000672F782F8827985FF7CF86957795679580
:10249000B11D93959639C8F30895E894BB27662734
:1024A0007727CB0197F908950E9467120C940212C6
:1024B0000E94F41138F00E94FB1120F0952311F0D6
:1024C0000C94C2110C94F11111240C944E120E9420
:1024D000131270F3959FC1F3950F50E0551F629F43
:1024E000F001729FBB27F00DB11D639FAA27F00D6D
:1024F000B11DAA1F649F6627B00DA11D661F829F94
:102500002227B00DA11D621F739FB00DA11D621F78
:10251000839FA00D611D221F749F3327A00D611D95
:10252000231F849F600D211D822F762F6A2F112477
:102530009F5750409AF0F1F088234AF0EE0FFF1FAA
:10254000BB1F661F771F881F91505040A9F79E3F01
:10255000510580F00C94C2110C944E125F3FE4F3CD
:10256000983ED4F3869577956795B795F795E79557
:102570009F5FC1F7FE2B880F911D9695879597F960
:102580000895DB018F939F930E941813BF91AF9121
:10259000A29F800D911DA39F900DB29F900D1124BD
:1025A0000895A1E21A2EAA1BBB1BFD010DC0AA1F94
:1025B000BB1FEE1FFF1FA217B307E407F50720F0AC
:1025C000A21BB30BE40BF50B661F771F881F991F27
:1025D0001A9469F760957095809590959B01AC0170
:1025E000BD01CF010895052E97FB1EF400940E94B3
:1025F0000A1357FD07D00E94D11207FC03D04EF4F6
:102600000C940A1350954095309521953F4F4F4FAC
:102610005F4F089590958095709561957F4F8F4F8E
:102620009F4F0895EE0FFF1F0590F491E02D099440
:102630000E949B13A59F900DB49F900DA49F800DA9
:10264000911D11240895689401C0E8948F929F927F
:10265000CF93DF930E943113DF91CF919F908F90A2
:10266000089588249924F401E401B0E49F93AA27F3
:102670009A158B049C04ED05FE05CF05D007A10734
:1026800098F4AD2FDC2FCF2FFE2FE92D982C892E1B
:10269000982F872F762F652F542F432F322F2227E5
:1026A000B85031F7BF9127C01B2EBF91BB27220F17
:1026B000331F441F551F661F771F881F991F881CD3
:1026C000991CEE1FFF1FCC1FDD1FAA1FBB1F8A1402
:1026D0009B04EC05FD05CE05DF05A007B10748F01A
:1026E0008A189B08EC09FD09CE09DF09A00BB10B84
:1026F00021601A94E1F62EF49401AF01BE01CD01E0
:10270000000C08950F93083090F0982F872F762FA4
:10271000652F542F432F322F22270850F4CF220F3A
:10272000331F441F551F661F771F881F991F0A9567
:10273000B2F70F910895A29FB001B39FC001A39F6C
:10274000700D811D1124911DB29F700D811D1124EA
:08275000911D0895F894FFCFDC
:1027580064000000000096032000000000007601DD
:10276800490141012D011E011D0100000000FC016D
:10277800240697025B027B0250022A323A43575FD3
:102788005369353335315F756E6974003A003230FC
:1027980032333031313631333437002400614F4B16
:1027A80000624F4B00634F4B00644F4B006445522F
:0827B800524F5200660072004E
:00000001FF
